:020000020000FC
:2000000000400034086054140800683A0000000000000000000000000000000000000000F2
:20000800DEFFED04DFC00015D8400215D8800315D8C00415D9000515D9400615D98007156A
:20001000D9C00815000B307ADA000915DA400A15DA800B15DAC00C15DB000D15DB400E15C4
:20001800DB800F15DBC01015D9401115EBFFFF04DBC012150009313A2880004C10000326FA
:200020002000022600080EC000000306DF401215E8BFFF17003DA03AD9401117DF401217F6
:20002800DFC000172801707AD8400217D8800317D8C00417D9000517D9400617D9800717F7
:20003000D9C00817DA000917DA400A17DA800B17DAC00C17DB000D17DB400E17DB800F17CA
:20003800DBC01017DEC01304EF80083ADEFFFE04DFC00115DC0000150007313A0400007411
:20004000842156040009883A0080004410CA703A28000826200890FA8109883A2080001783
:2000480021000117103EE83A0007313A183FF51E000003061085883A21000044003FF30616
:20005000DFC00117DC000017DEC00204F800283A06C00074DEC0001406800074D6814E1449
:200058000080003410A1521400C0003418E1961410C00326100000151080010410FFFD3631
:20006000000831C000084200003FFF06008000741084040400C03F8410C0003510BFFF040F
:2000680000C0004410C00035F800283ADEFFFE04DFC00115008000741084020400C03FC430
:2000700010C000350180007431A06304000F883AD80000150009883A000B883A000821803F
:20007800000B883A0009883A000821C00100007421214504000844C000800074108404044B
:2000800000C0004410C000350100007421214B04000844C0003FFF0600082B410007303A1C
:2000880000BFFF841884703A1001703A0080007410A152040180004411000017314A983AE0
:20009000290AB03A1140001510800017100170FA1801703A0005883AF800283A0007303A56
:2000980000BFFF841884703A1001703A0080007410A1520401BFFF8411000017314A183AD2
:2000A000290A703A1140001510800017100170FA1801703A0005883AF800283A000530FAC8
:2000A80000C00044194A983A1144703A1004C03AF800283ADEFFFE04DFC00115DC00001513
:2000B00000C007C4194010160021303A00FFFF8480C6703A1801703A280490FA00C000747C
:2000B80018E156041885883A1180001511C0011530000226000821C000000106000825C0B4
:2000C0008001703A0000010600BFFA84DFC00117DC000017DEC00204F800283ADEFFFF0429
:2000C800DFC0001500C0007418E14E0401000074212150041900061E00C0007418E0080465
:2000D00001000074212008041900151E00000E06014000742961500400BFFF0428CBC83AA4
:2000D800288A703A0005883A00000506208F883A39C00017188D883A1080010431C0001557
:2000E000117FFA1E003FEC0600C0007418E1450401000074212145041900131E00000E0653
:2000E800014000742960540400BFFF0428CBC83A288A703A0005883A00000506208F883A0C
:2000F00039C00017188D883A1080010431C00015117FFA1E003FEC0600084DC0DFC000173A
:2000F800DEC0010400084E010140007429614E0400BFFF0428CBC83A288A703A0005883A83
:2001000000000506208F883A39C00017188D883A1080010431C00015117FFA1E003FEE0676
:20010800DEFFFF040009883ADFC000150008484000084A40D1200717D1600617D1A005176C
:20011000DFC00017DEC0010400081AC1DEFFFE04DC000015DFC001152021883A00084EC0F5
:200118000100007421214F04800B883A100D883A000F883ADFC00117DC000017DEC0020472
:2001200000084A81DEFFFF04DFC0001500084E40008000441001703ADFC00017DEC00104EA
:20012800F800283AF800283A20C000173005883A2989883A198001040000060631C00037CF
:2001300039FFFFEC383FFD2629C000072940004419C00035293FF936F800283AF800283AFC
:20013800F800283A000170FAF800283A20800007100006262005883A1080004410C0000713
:20014000183FFD1E1105C83AF800283A0005883AF800283A6C6C65487266206F4E206D6F64
:2001480020736F690A2149490000000020515249454E4F440000000A000000000000000033
:20015000FFFFFFFF000110280000000000000000000000000000000000000000000000005A
:20015800000000000000000000000000000000000000000000000000000000000000000087
:2001600000000000000000000000000000000000000000000000000000000000000000007F
:20016800000000000000000000000000000000000000000000000000000000000000000077
:2001700000000000000000000000000000000000000000000000000000000000000000006F
:00000001FF
