:020000020000FC
:20000000008400141001483A10BFF80400BFFD1600400074084008140800683A0000000056
:2000080006C00074DEFFFF1406800074D6A0C514008000741080C71400C0007418C0CA141C
:2000100010C00326100000151080010410FFFD3600100CC000101D00003FFF06DEFFFE04AF
:20001800010000742100C104DC000015DFC0011500101FC0040000B484040C0400800044C4
:2000200080800035010000742100C20400101FC080000035010000742100C30400101FC03F
:20002800008000848080001500800104808000150080020480800015800000150100007460
:200030002100C40400101FC0003FFF06DEFFFF04DFC0001500C0007418C0C50401000074B6
:200038002100C6041900061E00C0007418C0080401000074210008041900151E00000E0666
:20004000014000742940C60400BFFF0428CBC83A288A703A0005883A00000506208F883A62
:2000480039C00017188D883A1080010431C00015117FFA1E003FEC0600C0007418C0C104DC
:20005000010000742100C1041900131E00000E06014000742940080400BFFF0428CBC83AF6
:20005800288A703A0005883A00000506208F883A39C00017188D883A1080010431C00015D7
:20006000117FFA1E003FEC06001028C0DFC00017DEC0010400102901014000742940C50435
:2000680000BFFF0428CBC83A288A703A0005883A00000506208F883A39C00017188D883AAB
:200070001080010431C00015117FFA1E003FEE06DEFFFF040009883ADFC000150010234028
:2000780000102540D1200417D1600317D1A00217DFC00017DEC00104001005C1DEFFFE0404
:20008000DC000015DFC001152021883A00102DC0010000742100C504800B883A100D883A2F
:20008800000F883ADFC00117DC000017DEC0020400102581DEFFFF04DFC00015001029C0F6
:20009000008000441001703ADFC00017DEC00104F800283AF800283A20C000173005883AD6
:200098002989883A198001040000060631C0003739FFFFEC383FFD2629C0000729400044A8
:2000A00019C00035293FF936F800283AF800283A0009883A0144000400102A41000170FAED
:2000A800F800283A008400041140012E100B883A214B883A2005883A000002061000603A32
:2000B00010800804117FFD36210007CC200001261000603A0000203AF800283A2080000791
:2000B800100006262005883A1080004410C00007183FFD1E1105C83AF800283A0005883AAF
:2000C000F800283A000A694800000A3100000A3200000A33000000000002104800000000FD
:2000C800000000000000000000000000000000000000000000000000000000000000000018
:2000D000000000000000000000000000000000000000000000000000000000000000000010
:2000D800000000000000000000000000000000000000000000000000000000000000000008
:2000E000000000000000000000000000000000000000000000000000000000000000000000
:00000001FF
